{
  "_format": "hh-sol-artifact-1",
  "contractName": "BasicDutchAuction",
  "sourceName": "contracts/BasicDutchAuction.sol",
  "abi": [
    {
      "inputs": [
        {
          "internalType": "uint256",
          "name": "_reservePrice",
          "type": "uint256"
        },
        {
          "internalType": "uint256",
          "name": "_numBlocksAuctionOpen",
          "type": "uint256"
        },
        {
          "internalType": "uint256",
          "name": "_offerPriceDecrement",
          "type": "uint256"
        }
      ],
      "stateMutability": "nonpayable",
      "type": "constructor"
    },
    {
      "inputs": [],
      "name": "auctionEndTime",
      "outputs": [
        {
          "internalType": "uint256",
          "name": "",
          "type": "uint256"
        }
      ],
      "stateMutability": "view",
      "type": "function"
    },
    {
      "inputs": [],
      "name": "auctionEnded",
      "outputs": [
        {
          "internalType": "bool",
          "name": "",
          "type": "bool"
        }
      ],
      "stateMutability": "view",
      "type": "function"
    },
    {
      "inputs": [],
      "name": "bid",
      "outputs": [],
      "stateMutability": "payable",
      "type": "function"
    },
    {
      "inputs": [
        {
          "internalType": "address",
          "name": "",
          "type": "address"
        }
      ],
      "name": "bids",
      "outputs": [
        {
          "internalType": "uint256",
          "name": "",
          "type": "uint256"
        }
      ],
      "stateMutability": "view",
      "type": "function"
    },
    {
      "inputs": [],
      "name": "buyer",
      "outputs": [
        {
          "internalType": "address",
          "name": "",
          "type": "address"
        }
      ],
      "stateMutability": "view",
      "type": "function"
    },
    {
      "inputs": [],
      "name": "getCurrentPrice",
      "outputs": [
        {
          "internalType": "uint256",
          "name": "",
          "type": "uint256"
        }
      ],
      "stateMutability": "view",
      "type": "function"
    },
    {
      "inputs": [],
      "name": "initialPrice",
      "outputs": [
        {
          "internalType": "uint256",
          "name": "",
          "type": "uint256"
        }
      ],
      "stateMutability": "view",
      "type": "function"
    },
    {
      "inputs": [],
      "name": "numBlocksAuctionOpen",
      "outputs": [
        {
          "internalType": "uint256",
          "name": "",
          "type": "uint256"
        }
      ],
      "stateMutability": "view",
      "type": "function"
    },
    {
      "inputs": [],
      "name": "offerPriceDecrement",
      "outputs": [
        {
          "internalType": "uint256",
          "name": "",
          "type": "uint256"
        }
      ],
      "stateMutability": "view",
      "type": "function"
    },
    {
      "inputs": [],
      "name": "reservePrice",
      "outputs": [
        {
          "internalType": "uint256",
          "name": "",
          "type": "uint256"
        }
      ],
      "stateMutability": "view",
      "type": "function"
    },
    {
      "inputs": [],
      "name": "seller",
      "outputs": [
        {
          "internalType": "address payable",
          "name": "",
          "type": "address"
        }
      ],
      "stateMutability": "view",
      "type": "function"
    },
    {
      "inputs": [],
      "name": "startingblock",
      "outputs": [
        {
          "internalType": "uint256",
          "name": "",
          "type": "uint256"
        }
      ],
      "stateMutability": "view",
      "type": "function"
    },
    {
      "inputs": [],
      "name": "winningBidder",
      "outputs": [
        {
          "internalType": "address",
          "name": "",
          "type": "address"
        }
      ],
      "stateMutability": "view",
      "type": "function"
    }
  ],
  "bytecode": "0x60806040523480156200001157600080fd5b5060405162000ea538038062000ea5833981810160405281019062000037919062000134565b336000806101000a81548173ffffffffffffffffffffffffffffffffffffffff021916908373ffffffffffffffffffffffffffffffffffffffff1602179055508260018190555081600281905550806003819055506003546002546200009e9190620001bf565b600154620000ad91906200020a565b60048190555060025443620000c391906200020a565b600581905550436006819055506000600760006101000a81548160ff02191690831515021790555050505062000245565b600080fd5b6000819050919050565b6200010e81620000f9565b81146200011a57600080fd5b50565b6000815190506200012e8162000103565b92915050565b60008060006060848603121562000150576200014f620000f4565b5b600062000160868287016200011d565b935050602062000173868287016200011d565b925050604062000186868287016200011d565b9150509250925092565b7f4e487b7100000000000000000000000000000000000000000000000000000000600052601160045260246000fd5b6000620001cc82620000f9565b9150620001d983620000f9565b9250828202620001e981620000f9565b9150828204841483151762000203576200020262000190565b5b5092915050565b60006200021782620000f9565b91506200022483620000f9565b92508282019050808211156200023f576200023e62000190565b5b92915050565b610c5080620002556000396000f3fe6080604052600436106100c25760003560e01c806362ea82db1161007f5780638890ed09116100595780638890ed091461023b578063d3642a8814610266578063db2e1eed14610291578063eb91d37e146102bc576100c2565b806362ea82db146101a85780637150d8ae146101e55780638643337414610210576100c2565b806308551a53146100c75780631998aeef146100f25780631d0806ae146100fc5780633103ea62146101275780634b449cba14610152578063607a51491461017d575b600080fd5b3480156100d357600080fd5b506100dc6102e7565b6040516100e991906108b9565b60405180910390f35b6100fa61030b565b005b34801561010857600080fd5b5061011161044b565b60405161011e91906108ed565b60405180910390f35b34801561013357600080fd5b5061013c610451565b60405161014991906108ed565b60405180910390f35b34801561015e57600080fd5b50610167610457565b60405161017491906108ed565b60405180910390f35b34801561018957600080fd5b5061019261045d565b60405161019f91906108ed565b60405180910390f35b3480156101b457600080fd5b506101cf60048036038101906101ca919061094b565b610463565b6040516101dc91906108ed565b60405180910390f35b3480156101f157600080fd5b506101fa61047b565b6040516102079190610987565b60405180910390f35b34801561021c57600080fd5b506102256104a1565b60405161023291906109bd565b60405180910390f35b34801561024757600080fd5b506102506104b4565b60405161025d9190610987565b60405180910390f35b34801561027257600080fd5b5061027b6104da565b60405161028891906108ed565b60405180910390f35b34801561029d57600080fd5b506102a66104e0565b6040516102b391906108ed565b60405180910390f35b3480156102c857600080fd5b506102d16104e6565b6040516102de91906108ed565b60405180910390f35b60008054906101000a900473ffffffffffffffffffffffffffffffffffffffff1681565b600760009054906101000a900460ff16158015610329575060055443105b610368576040517f08c379a000000000000000000000000000000000000000000000000000000000815260040161035f90610a35565b60405180910390fd5b6103706104e6565b3410156103b2576040517f08c379a00000000000000000000000000000000000000000000000000000000081526004016103a990610aa1565b60405180910390fd5b34600960003373ffffffffffffffffffffffffffffffffffffffff1673ffffffffffffffffffffffffffffffffffffffff1681526020019081526020016000208190555033600860006101000a81548173ffffffffffffffffffffffffffffffffffffffff021916908373ffffffffffffffffffffffffffffffffffffffff160217905550600454341061044957610448610583565b5b565b60045481565b60025481565b60055481565b60065481565b60096020528060005260406000206000915090505481565b600860009054906101000a900473ffffffffffffffffffffffffffffffffffffffff1681565b600760009054906101000a900460ff1681565b600760019054906101000a900473ffffffffffffffffffffffffffffffffffffffff1681565b60035481565b60015481565b6000600554431061052c576040517f08c379a000000000000000000000000000000000000000000000000000000000815260040161052390610b0d565b60405180910390fd5b60004390506000816005546105419190610b5c565b90506000600354836105539190610b90565b6004546105609190610b5c565b9050600154811015610579576001549350505050610580565b8093505050505b90565b6001600760006101000a81548160ff02191690831515021790555033600760016101000a81548173ffffffffffffffffffffffffffffffffffffffff021916908373ffffffffffffffffffffffffffffffffffffffff16021790555060005b600554811015610736576000329050600760019054906101000a900473ffffffffffffffffffffffffffffffffffffffff1673ffffffffffffffffffffffffffffffffffffffff168173ffffffffffffffffffffffffffffffffffffffff1614610722576000600960008373ffffffffffffffffffffffffffffffffffffffff1673ffffffffffffffffffffffffffffffffffffffff1681526020019081526020016000205490506000811115610720576000600960008473ffffffffffffffffffffffffffffffffffffffff1673ffffffffffffffffffffffffffffffffffffffff168152602001908152602001600020819055508173ffffffffffffffffffffffffffffffffffffffff166108fc829081150290604051600060405180830381858888f1935050505015801561071e573d6000803e3d6000fd5b505b505b50808061072e90610bd2565b9150506105e2565b50600060096000600760019054906101000a900473ffffffffffffffffffffffffffffffffffffffff1673ffffffffffffffffffffffffffffffffffffffff1673ffffffffffffffffffffffffffffffffffffffff168152602001908152602001600020549050600081111561087557600060096000600760019054906101000a900473ffffffffffffffffffffffffffffffffffffffff1673ffffffffffffffffffffffffffffffffffffffff1673ffffffffffffffffffffffffffffffffffffffff1681526020019081526020016000208190555060008054906101000a900473ffffffffffffffffffffffffffffffffffffffff1673ffffffffffffffffffffffffffffffffffffffff166108fc829081150290604051600060405180830381858888f19350505050158015610873573d6000803e3d6000fd5b505b50565b600073ffffffffffffffffffffffffffffffffffffffff82169050919050565b60006108a382610878565b9050919050565b6108b381610898565b82525050565b60006020820190506108ce60008301846108aa565b92915050565b6000819050919050565b6108e7816108d4565b82525050565b600060208201905061090260008301846108de565b92915050565b600080fd5b600061091882610878565b9050919050565b6109288161090d565b811461093357600080fd5b50565b6000813590506109458161091f565b92915050565b60006020828403121561096157610960610908565b5b600061096f84828501610936565b91505092915050565b6109818161090d565b82525050565b600060208201905061099c6000830184610978565b92915050565b60008115159050919050565b6109b7816109a2565b82525050565b60006020820190506109d260008301846109ae565b92915050565b600082825260208201905092915050565b7f41756374696f6e2068617320616c726561647920656e64656400000000000000600082015250565b6000610a1f6019836109d8565b9150610a2a826109e9565b602082019050919050565b60006020820190508181036000830152610a4e81610a12565b9050919050565b7f42696420616d6f756e7420697320746f6f206c6f770000000000000000000000600082015250565b6000610a8b6015836109d8565b9150610a9682610a55565b602082019050919050565b60006020820190508181036000830152610aba81610a7e565b9050919050565b7f41756374696f6e20697320636c6f736564000000000000000000000000000000600082015250565b6000610af76011836109d8565b9150610b0282610ac1565b602082019050919050565b60006020820190508181036000830152610b2681610aea565b9050919050565b7f4e487b7100000000000000000000000000000000000000000000000000000000600052601160045260246000fd5b6000610b67826108d4565b9150610b72836108d4565b9250828203905081811115610b8a57610b89610b2d565b5b92915050565b6000610b9b826108d4565b9150610ba6836108d4565b9250828202610bb4816108d4565b91508282048414831517610bcb57610bca610b2d565b5b5092915050565b6000610bdd826108d4565b91507fffffffffffffffffffffffffffffffffffffffffffffffffffffffffffffffff8203610c0f57610c0e610b2d565b5b60018201905091905056fea2646970667358221220276ccb6a4a279375ea22b71947ee4ba784a73035cab5fdc5dea20e6f8583ab5b64736f6c63430008120033",
  "linkReferences": {},
  "deployedLinkReferences": {}
}